{"address":"0x5FbDB2315678afecb367f032d93F642f64180aa3","bytecode":"0x608060405260006100176001600160e01b0361006616565b600080546001600160a01b0319166001600160a01b0383169081178255604051929350917f8be0079c531659141344cd1fd0a4f28419497f9722a3daafe3b4186f6b6457e0908290a35061006a565b3390565b610505806100796000396000f3fe60806040526004361061004e5760003560e01c80633974874b1461005a5780633ccfd60b14610101578063715018a6146101165780638da5cb5b1461012b578063f2fde38b1461015c57610055565b3661005557005b600080fd5b6100ff6004803603604081101561007057600080fd5b81019060208101813564010000000081111561008b57600080fd5b82018360208201111561009d57600080fd5b803590602001918460208302840111640100000000831117156100bf57600080fd5b919080806020026020016040519081016040528093929190818152602001838360200280828437600092019190915250929550509135925061018f915050565b005b34801561010d57600080fd5b506100ff610255565b34801561012257600080fd5b506100ff6102dc565b34801561013757600080fd5b5061014061037e565b604080516001600160a01b039092168252519081900360200190f35b34801561016857600080fd5b506100ff6004803603602081101561017f57600080fd5b50356001600160a01b031661038d565b610197610485565b6000546001600160a01b039081169116146101e7576040805162461bcd60e51b815260206004820181905260248201526000805160206104b0833981519152604482015290519081900360640190fd5b60005b82518161ffff16101561025057828161ffff168151811061020757fe5b60200260200101516001600160a01b03166108fc839081150290604051600060405180830381858888f19350505050158015610247573d6000803e3d6000fd5b506001016101ea565b505050565b61025d610485565b6000546001600160a01b039081169116146102ad576040805162461bcd60e51b815260206004820181905260248201526000805160206104b0833981519152604482015290519081900360640190fd5b60405133904780156108fc02916000818181858888f193505050501580156102d9573d6000803e3d6000fd5b50565b6102e4610485565b6000546001600160a01b03908116911614610334576040805162461bcd60e51b815260206004820181905260248201526000805160206104b0833981519152604482015290519081900360640190fd5b600080546040516001600160a01b03909116907f8be0079c531659141344cd1fd0a4f28419497f9722a3daafe3b4186f6b6457e0908390a3600080546001600160a01b0319169055565b6000546001600160a01b031690565b610395610485565b6000546001600160a01b039081169116146103e5576040805162461bcd60e51b815260206004820181905260248201526000805160206104b0833981519152604482015290519081900360640190fd5b6001600160a01b03811661042a5760405162461bcd60e51b815260040180806020018281038252602681526020018061048a6026913960400191505060405180910390fd5b600080546040516001600160a01b03808516939216917f8be0079c531659141344cd1fd0a4f28419497f9722a3daafe3b4186f6b6457e091a3600080546001600160a01b0319166001600160a01b0392909216919091179055565b339056fe4f776e61626c653a206e6577206f776e657220697320746865207a65726f20616464726573734f776e61626c653a2063616c6c6572206973206e6f7420746865206f776e6572a2646970667358221220df8a68c9522c30dbacdefbaca16f214f62f35b2470c49d45f6b45031568a52ec64736f6c63430006070033","abi":[{"anonymous":false,"inputs":[{"indexed":true,"internalType":"address","name":"previousOwner","type":"address"},{"indexed":true,"internalType":"address","name":"newOwner","type":"address"}],"name":"OwnershipTransferred","type":"event"},{"inputs":[{"internalType":"address payable[]","name":"wallets","type":"address[]"},{"internalType":"uint256","name":"amount","type":"uint256"}],"name":"drop","outputs":[],"stateMutability":"payable","type":"function"},{"inputs":[],"name":"owner","outputs":[{"internalType":"address","name":"","type":"address"}],"stateMutability":"view","type":"function"},{"inputs":[],"name":"renounceOwnership","outputs":[],"stateMutability":"nonpayable","type":"function"},{"inputs":[{"internalType":"address","name":"newOwner","type":"address"}],"name":"transferOwnership","outputs":[],"stateMutability":"nonpayable","type":"function"},{"inputs":[],"name":"withdraw","outputs":[],"stateMutability":"nonpayable","type":"function"},{"stateMutability":"payable","type":"receive"}]}